:020000040800F2
:1000000000000220F50E0008C10E0008C30E000813
:10001000C50E0008C70E0008C90E00080000000049
:10002000000000000000000000000000CB0E0008EF
:10003000CD0E000800000000CF0E0008D10E000811
:10004000450F0008450F0008450F0008450F000840
:10005000450F0008450F0008450F0008450F000830
:10006000450F0008450F0008450F0008450F000820
:10007000450F0008450F0008450F0008450F000810
:10008000450F0008450F0008450F0008000000005C
:10009000000000000000000000000000450F000804
:1000A000450F0008450F0008450F0008450F0008E0
:1000B000A1070008450F0008450F0008450F00087C
:1000C000450F0008450F0008450F0008450F0008C0
:1000D000450F0008D50E0008450F0008000000007D
:1000E000450F0008450F0008450F000800000000FC
:1000F000000000000000000000000000450F0008A4
:1001000000000000450F0008450F0008450F0008DB
:1001100000000000000000000000000000000000DF
:10012000450F0008450F0008450F0008450F00085F
:10013000450F000800000000000000000000000063
:10014000000000000000000000000000450F000853
:10015000450F000865070008450F0008450F000817
:10016000450F0008450F00080000000000000000D7
:10017000000000000000000000000000000000007F
:1001800000000000450F0008000000000000000013
:08019000450F0008450F0008AF
:1001980010B5054C237833B9044B13B10448AFF3B9
:1001A80000800123237010BD14000020000000000F
:1001B800DC1E000808B5034B1BB103490348AFF325
:1001C800008008BD0000000018000020DC1E0008A8
:1001D80053B94AB9002908BF00281CBF4FF0FF31A6
:1001E8004FF0FF3000F074B9ADF1080C6DE904CEA2
:1001F80000F006F8DDF804E0DDE9022304B07047FA
:100208002DE9F047089D04468E46002B4DD18A42C1
:10021800944669D9B2FA82F252B101FA02F3C2F1F4
:10022800200120FA01F10CFA02FC41EA030E944085
:100238004FEA1C48210CBEFBF8F61FFA8CF708FBA6
:1002480016E341EA034306FB07F199420AD91CEB7E
:10025800030306F1FF3080F01F81994240F21C81B0
:10026800023E63445B1AA4B2B3FBF8F008FB1033F8
:1002780044EA034400FB07F7A7420AD91CEB04042D
:1002880000F1FF3380F00A81A74240F207816444FD
:10029800023840EA0640E41B00261DB1D440002382
:1002A800C5E900433146BDE8F0878B4209D9002DE6
:1002B80000F0EF800026C5E9000130463146BDE870
:1002C800F087B3FA83F6002E4AD18B4202D38242DA
:1002D80000F2F980841A61EB030301209E46002D89
:1002E800E0D0C5E9004EDDE702B9FFDEB2FA82F2DE
:1002F800002A40F09280A1EB0C014FEA1C471FFA3C
:100308008CFE0126200CB1FBF7F307FB131140EA22
:1003180001410EFB03F0884208D91CEB010103F1EF
:10032800FF3802D2884200F2CB804346091AA4B2B1
:10033800B1FBF7F007FB101144EA01440EFB00FE85
:10034800A64508D91CEB040400F1FF3102D2A645EA
:1003580000F2BB800846A4EB0E0440EA03409CE789
:10036800C6F12007B34022FA07FC4CEA030C20FA36
:1003780007F401FA06F31C43F9404FEA1C4900FA56
:1003880006F3B1FBF9F8200C1FFA8CFE09FB1811D3
:1003980040EA014108FB0EF0884202FA06F20BD946
:1003A8001CEB010108F1FF3A80F08880884240F296
:1003B8008580A8F102086144091AA4B2B1FBF9F0DA
:1003C80009FB101144EA014100FB0EFE8E4508D9D5
:1003D8001CEB010100F1FF346CD28E456AD902385A
:1003E800614440EA0840A0FB0294A1EB0E01A1423F
:1003F800C846A64656D353D05DB1B3EB080261EBAD
:100408000E0101FA07F722FA06F3F1401F43C5E986
:10041800007100263146BDE8F087C2F12003D840BC
:100428000CFA02FC21FA03F3914001434FEA1C47FE
:100438001FFA8CFEB3FBF7F007FB10360B0C43EAF0
:10044800064300FB0EF69E4204FA02F408D91CEBA0
:10045800030300F1FF382FD29E422DD9023863449E
:100468009B1B89B2B3FBF7F607FB163341EA03413E
:1004780006FB0EF38B4208D91CEB010106F1FF388D
:1004880016D28B4214D9023E6144C91A46EA004684
:1004980038E72E46284605E70646E3E61846F8E616
:1004A8004B45A9D2B9EB020864EB0C0E0138A3E75F
:1004B8004646EAE7204694E74046D1E7D0467BE740
:1004C800023B614432E7304609E76444023842E7B8
:1004D800704700BF7047F0B5012404FA01F19DF898
:1004E80014609DF81870302404FB020289B20020C1
:1004F8004FF0800C4CFA00F423421EBF55880D4380
:10050800558026421EBF558A0D435582274218BF83
:10051800548C00F101001CBF0C435484082802F1DC
:100528000202E7D1F0BD000073B5817B01290446C2
:100538000AD1254AC37A1078002830D10133DBB2BA
:10054800FF2BE37200D11170E17B012909D11F4A09
:10055800237B107850BB0133DBB2FF2B237300D110
:100568001170217C012909D1194A637B107820BBBD
:100578000133DBB2FF2B637308BF1170154E0025E2
:10058800637B0193237B00932A46E37A61783046A4
:100598000135FFF7A0FF1F2DF2D102B070BD013B5E
:1005A800DBB2E372002BCFD11370CDE7013BDBB296
:1005B8002373002BD5D11370D3E7013BDBB26373F0
:1005C800002BDBD11370D9E70306002002060020B8
:1005D800010600203000002073B5174E857C0446C4
:1005E800627CA37C9918A9420EDCE17CF9B901333D
:1005F800A374A37CC2F11F029342A4BF0122E27438
:1006080003B9E37402B070BDE9B201EB4103A1EB99
:1006180081018039DBB2C9B2019300912A46617821
:1006280083F080033046FFF756FF0135D8E70129EC
:10063800DFD1013BDCE700BF30000020244A254819
:10064800136B43F4800370B51363234B234E4FF0B1
:10065800FF329A609A6A32439A6200214FF43A74E0
:100668001F4ADC6218635A63D9639D6A45F0010525
:100678009D621A6C42F0406242F431521A64D3F817
:10068800A050184A45F01005C3F8A0505C6498645F
:10069800DA64154A202582F845139560D9631D6CE4
:1006A80045F001051D64D3F8A0203243C3F8A0200B
:1006B8000E4AC3F8A440C3F8A800C3F8AC20D96315
:1006C800D3F8A02042F00102C3F8A02070BD00BFFB
:1006D8000038024014040240006402404028000C24
:1006E800F61E00083000002000E100E0F41E0008BB
:1006F800094A536C43F001035364084BDA6842F427
:100708006062DA603F2100229A62D9625A63152238
:100718009A632A22DA6370470038024000000140D9
:100728000C4A136C43F0010313644FF080434FF4F9
:100738008002DA62DA6842F00102DA60064A1021C1
:1007480082F81C134FF0805111601A6822F00102E0
:100758001A6070470038024000E100E00B4B5A680D
:10076800920211D50A490A6822F001020A60094A70
:10077800012111704FF080410A6842F001020A60BD
:10078800DA6842F40012DA60704700BF0064024081
:1007980000000140000600204FF080431A69D2078C
:1007A8001FD51A6922F001021A611A6822F00102A3
:1007B8001A6003F519334FF0FF329A609A6A42F0D3
:1007C80001029A621A6C42F001021A64D3F8A0205E
:1007D80042F00102C3F8A020024A136843F0010363
:1007E8001360704700000140024A136843F0010398
:1007F8001360704700000140034B1A78012A04BFB8
:1008080000221A70704700BF04000020FFF7F4BFF1
:100818001C4B1B78012B33D11B4B40F2031119835E
:1008280040F20321198640F20331A3F8481040F240
:100838000341A3F8601040F20351A3F8781040F286
:100848000361A3F8901040F203710322A3F8A810E3
:1008580040F603011A80A3F8C0100C4A5A6040F60B
:100868000311DA615A63DA645A66DA67C3F89420C6
:10087800C3F8AC20C3F8C420A3F8D810C3F8DC2010
:10088800704700BF0400002004060020DD040008B3
:100898002DE9F041484D2B78012B40F08B80474BD8
:1008A800474C5C6040F2022C02224FF48177A3F897
:1008B80030C040F2024E40F2023C4FF680700521F3
:1008C8001A80082600221F83A3F848C00C274FF07F
:1008D800140CA3F860E040F202584FF0180E83F8A9
:1008E8002A7083F85AC083F872E098829A7559740E
:1008F8009E74DC61988583F82E2083F829105C6348
:10090800A3F8440083F8462083F84110DC64A3F878
:100918005C0083F85E2083F859105C66A3F87400C5
:1009280083F8762083F87110A3F87880DC67A3F841
:100938008C0083F88E2083F8A2C040F2027CA3F8D2
:10094800A8C04FF0100C83F88AE083F8BAC040F2D0
:10095800026E40F6020C83F8427040F6021783F8E4
:100968008910A3F890E0C3F89440A3F8A40083F892
:10097800A62083F8A110C3F8AC40A3F8BC0083F804
:10098800BE2083F8B910A3F8C0C0C3F8C440A3F8C8
:10099800D40083F8D62083F8D110A3F8D870C3F810
:1009A800DC40A3F8EC0083F8EE2083F8E91083F824
:1009B800EA602A70BDE8F0810400002004060020E7
:1009C800E1050008F0B53B4E3278012A71D13A4B67
:1009D8003A4D3B4CDC6040F203271F8680270321F9
:1009E80040F203145D6283F83B7040F2033C354FDC
:1009F8005D6540F20345002019801C833249DF639E
:100A0800FF24A3F848C0A3F86050C3F884702F4DA2
:100A1800DD6640F2036740F2035CA3F8907059600A
:100A280040F20377D8721A74D96183F8234083F8A7
:100A38002820596383F84020D96483F8530083F849
:100A48005820596683F86B0083F87020A3F878C0A3
:100A5800D96783F8830083F88820C3F8941083F853
:100A68009B40C3F89C50C3F8B45040F60305A3F864
:100A7800A870A3F8C05040F60317154D83F8A020BE
:100A8800C3F8AC1083F8B30083F8B820C3F8C410D7
:100A980083F8CB00C3F8CC5083F8D020A3F8D870E3
:100AA800C3F8DC1083F8E340C3F8E45083F8E82087
:100AB8003070F0BD04000020040600200080010111
:100AC800FF8001018080010131050008FF0001015C
:100AD800FFFF010138B501380139012310F9015F21
:100AE80011F9012F9542DCB20BD004F130016423D7
:100AF8000122C9B2054800F087FFE31E5842584159
:100B080038BD0133042BE9D10324EEE7F8060020B1
:100B180008B531493148FFF7DDFF58B164230A228F
:100B28002F49304800F070FF2F4B304A1A60304B85
:100B380001221A7028492F48FFF7CCFF58B16423C7
:100B48000A222D49274800F05FFF274B2B4A1A60DD
:100B5800274B01221A7020492948FFF7BBFF58B1DB
:100B680064230A2227491F4800F04EFF1E4B264ADD
:100B78001A601F4B01221A7017492448FFF7AAFF71
:100B880058B164230A222249164800F03DFF164B4B
:100B9800204A1A60164B01221A700F491E48FFF7A7
:100BA80099FF58B164230A221C490E4800F02CFF13
:100BB8000D4B1B4A1A600E4B01221A70194909483D
:100BC80064230B2200F020FFBDE8084002490548D5
:100BD800032201F03AB900BF3C0700203C1F00087F
:100BE800F81E0008F8060020000000201908000878
:100BF80004000020401F0008021F00089908000890
:100C0800441F00080C1F0008CD090008481F0008F1
:100C1800161F0008010800084C1F0008201F0008C4
:100C2800150800082A1F000830B595B010220021C9
:100C38000AA801F047F91422002103A801F042F99B
:100C48001E4B002101911A6C42F080521A641B6CF1
:100C580003F080530193019B194B02911A6842F4E7
:100C680040421A601B6803F440430293029B01242C
:100C78004FF48033CDE9084302254FF48003CDE9D2
:100C88000E530C229023CDE910230621042308A833
:100C9800CDE9121300F02EFB08B172B6FEE7CDE9DC
:100CA80005000F230790214603A8CDE9033500F07E
:100CB800FFFC08B172B6FEE715B030BD003802403F
:100CC80000700040F0B589B000F05EF9FFF7ACFFA6
:100CD8001422002103A801F0F5F800243E4B0094EB
:100CE8001A6B3E483E4D42F080021A631A6B02F0BE
:100CF80080020092009A01941A6B42F002021A6371
:100D08001A6B02F002020192019A02941A6B42F0E5
:100D180001021A631B6B03F001030293224640F29F
:100D2800F731029B00F0E0FA40F2F73201232B483A
:100D380003A9CDE90323CDE90544032600F00CFA05
:100D480008232648059403A9CDE9033600F004FAE0
:100D580024492C614FF41653C5E9001328460C2387
:100D6800C5E90244C5E90534EC6100F01FFE08B18D
:100D780072B6FEE764231C491C4F0622284600F081
:100D880043FE32461A491B4E284601F05EF8FFF72B
:100D980055FCFFF7ADFCFFF7C3FCFFF725FDFFF798
:100DA80077FD3B6898473378012BFAD11248134DE9
:100DB8004FF4BA62002101F085F80A246B682846CE
:100DC8009847013C05F11805F8D10D4A347013789D
:100DD80001331370E5E700BF003802400004024009
:100DE800F806002000100140351F00080000002010
:100DF8003C070020000600203000002004060020E8
:100E0800F406002082B00C4B002100915A6C42F489
:100E180080425A645A6C02F480420092009A01910E
:100E28001A6C42F080521A641B6C03F080530193D1
:100E3800019B02B0704700BF0038024010B504465D
:100E480088B01422002103A801F03CF82268184B4E
:100E58009A422BD103F59433002401945A6C154817
:100E680042F010025A645A6C02F010020192019A80
:100E780002941A6B42F001021A631B6B03F0010320
:100E880002934FF40442029B0223CDE9032303217A
:100E98000723CDE9061303A900F05EF925202246B1
:100EA800214600F0AFF8252000F0DEF808B010BDAC
:100EB8000010014000000240FEE7FEE7FEE7FEE703
:100EC800FEE770477047704700F078B8014800F0B7
:100ED80051BE00BFF8060020034AD2F8883043F418
:100EE8007003C2F88830704700ED00E0DFF834D0B6
:100EF8000D480E490E4A002302E0D458C45004336A
:100F0800C4188C42F9D30B4A0B4C002301E0136040
:100F18000432A242FBD3FFF7DFFF00F0AFFFFFF779
:100F2800D1FE7047000002200000002014000020BD
:100F3800781F00081400002044070020FEE7000086
:100F480038B50E4A0E4B054618784FF47A73B3FB42
:100F5800F0F31068B0FBF3F000F094F8044658B9C9
:100F68000F2D09D8024629464FF0FF3000F04AF805
:100F7800044B20461D6038BD0120FCE70800002016
:100F88000C0000201000002008B50B4B1A6842F432
:100F980000721A601A6842F480621A601A6842F491
:100FA80080721A60032000F01BF80F20FFF7C8FFBB
:100FB800FFF728FF002008BD003C0240034A044B0D
:100FC80011681B780B441360704700BF400700206E
:100FD8000C000020014B1868704700BF4007002034
:100FE8000749CA6822F4E0620302120403F4E063CA
:100FF800120C134343F0BF6343F40033CB607047D4
:1010080000ED00E0164B30B5DC68C4F30224C4F1EF
:101018000705231D042D28BF0425062B4FF0FF3399
:101028008CBF033C002403FA05F521EA0501A3401F
:1010380022EA0302A140002841EA0203ACBF00F102
:101048006040084A4FEA0313B8BF00F00F00DBB254
:10105800AABF00F56140135480F8003330BD00BFCB
:1010680000ED00E014ED00E0002808DB4209012350
:1010780000F01F0003FA00F0014B43F8220070470C
:1010880000E100E00138B0F1807F0BD24FF0E0239F
:10109800054A5861F02182F8231000200722986140
:1010A8001A6170470120704700ED00E070B50446F2
:1010B800866DFFF78FFF94F83530022B054606D072
:1010C80080236365002384F83430012070BD2368D1
:1010D8001A6822F016021A605A6922F080025A61D0
:1010E800226C0AB9A26C1AB11A6822F008021A60B6
:1010F8001A6822F001021A6023681B6813F00103C2
:101108000AD1E16D3F228A40B260012284F835207D
:1011180084F834301846D9E7FFF75CFF401B0528F0
:10112800EAD9202363650320002384F8350084F876
:101138003430CBE790F83530022B03D08023436559
:10114800012070470268052380F83530136823F0C2
:1011580001031360002070472DE9F74FDFF88491F1
:101168005E4A00230D6801249C4004EA050CAC4348
:1011780040F0A5804D6805F003044FEA43080326B4
:10118800671E06FA08F6012F6FEA060634D8876844
:1011980007EA060ECF6807FA08F747EA0E078760DE
:1011A800476827EA0C0EC5F300179F4047EA0E0769
:1011B8004760C76807EA060E8F6807FA08F747EA24
:1011C8000E07022CC76019D14FEAD30A00EB8A0A2E
:1011D80003F0070BDAF820704FEA8B0B4FF00F0E75
:1011E8000EFA0BFE27EA0E0E0F6907FA0BF747EA0D
:1011F8000E07CAF8207001E0032CDAD1076804FA58
:1012080008F43E40264315F4403F066057D04FF09F
:10121800000ACDF804A0D9F84460314C46F4804661
:10122800C9F84460D9F8446006F480460196019EE6
:1012380023F0030606F1804606F59C3603F0030EFC
:10124800D6F808804FEA8E0E0F2707FA0EF7A0424D
:1012580028EA07073AD004F58064A04238D004F59C
:101268008064A04236D004F58064A04234D004F5EE
:101278008064A0420CBF0424072404FA0EF43C4303
:10128800B46094686FEA0C06EF0254BF34404CEA2D
:1012980004049460D468AF0254BF34404CEA040498
:1012A800D4605468AF0354BF34404CEA040454601B
:1012B8001468ED0354BF34404CEA0404146001334D
:1012C800102B7FF44FAF03B0BDE8F08F5446D4E73E
:1012D8000124D2E70224D0E70324CEE7003C0140F2
:1012E80000000240003802400AB1816170470904D9
:1012F800FBE700002DE9F341044640B30368DD072E
:1013080010D4236898075ED423681A0700F1A080D8
:1013180023685B0700F1C080A069002840F028819D
:1013280000202BE08F4B9A6802F00C02042A07D0A9
:101338009A6802F00C02082A0BD15A68510208D5A3
:10134800884B1B689A03DCD56368002BD9D1012030
:1013580014E06268B2F5803F13D11A6842F4803213
:101368001A60FFF737FE7F4E054633689B03C8D4E3
:10137800FFF730FE401B6428F7D9032002B0BDE810
:10138800F081784DB2F5A02F2B6807D143F4802364
:101398002B602B6843F480332B60E2E723F480331F
:1013A8002B602B6823F480232B60002AD9D1FFF708
:1013B80011FE06462B689F03A3D5FFF70BFE801B83
:1013C8006428F7D9D9E7674B9A6812F00C0F07D051
:1013D8009A6802F00C02082A11D15B685E020ED4EA
:1013E800604A13689D0702D5E368012BAFD11368E3
:1013F800216923F0F80343EAC103136084E7E26834
:10140800594BB2B101221A60FFF7E4FD554D06466B
:101418002B68980707D52B68226923F0F80343EA5D
:10142800C2032B6070E7FFF7D5FD801B0228EFD9B8
:10143800A3E71A60FFF7CEFD4A4E054633689907C1
:101448007FF562AFFFF7C6FD401B0228F6D994E787
:101458006269454B82B10122C3F8802EFFF7BAFDBD
:10146800404E0546736F9F073FF552AFFFF7B2FD39
:10147800401B0228F6D980E7C3F8802EFFF7AAFDA3
:10148800384E0546736F98077FF542AFFFF7A2FD08
:10149800401B0228F6D970E7324B1A6C12F08052C2
:1014A80028D101921A6C42F080521A641B6C03F026
:1014B80080530193019B01272C4D2B68D9051BD51F
:1014C800A368284D012B27D12B6F43F001032B670D
:1014D800FFF780FD234E054641F28838336F9B079E
:1014E80039D5002F3FF418AF1E4A136C23F08053F0
:1014F800136411E70027DFE72B6843F480732B6040
:10150800FFF768FD06462B68DA05D9D4FFF762FDB8
:10151800801B0228F7D930E7052B04D12B6F43F045
:1015280004032B67D0E72A6F22F001022A672A6F8B
:1015380022F004022A67002BCAD1FFF74BFD41F2C3
:10154800883806462B6F9807CBD5FFF743FD801BDD
:101558004045F7D911E7FFF73DFD401B4045BDD990
:101568000BE700BF0038024000004742007000400F
:10157800364DAB6803F00C03082B3DD0344B0022EA
:1015880002281A662BD1FFF725FD06462B6899011C
:101598001FD4D4E907321343626A43EA8213E26A2A
:1015A80043EA0263A26A5208013A43EA02436B60C3
:1015B800274B264D01221A66FFF70CFD04462B68BF
:1015C8009A013FF5ADAEFFF705FD001B0228F6D9DD
:1015D800D3E6FFF7FFFC801B0228D7D9CDE6FFF73B
:1015E800F9FC04462B689B017FF59AAEFFF7F2FCE5
:1015F800001B0228F6D9C0E601283FF4BFAE6B688D
:10160800E26903F4800191427FF4A1AE216A03F0FC
:101618003F028A427FF49BAE616A47F6C0721A4065
:10162800B2EB811F7FF493AEA26A520803F44031F3
:10163800013AB1EB024F7FF48AAEE26A03F07063BD
:10164800B3EB026F3FF46CAE81E600BF0038024096
:1016580000004742134908B58B6803F00C03042BBC
:101668001CD0082B1CD14A684B68496813F48003C6
:1016780014BF0D480D48C1F3881118BF002302F0AC
:101688003F02A1FB0001FEF7A3FD064B5B68C3F315
:10169800014301335B00B0FBF3F008BD0248FCE7EF
:1016A8000248FAE70038024040787D010024F4003F
:1016B8002DE9F0410D46044610B90120BDE8F0813E
:1016C800444B1A6802F007028A4228D32268970717
:1016D8002DD4D00741D43F4B1A6802F00702AA4222
:1016E80066D8226851076CD4130707D53A4A21698E
:1016F800936823F4604343EAC1039360FFF7AAFFAA
:10170800354B364A9B68C3F30313D35CD840344B3C
:101718001860344B1868FFF713FC0020CEE7CAB2F4
:101728001A701B6803F007038B42C6D1CEE72A4B19
:1017380012F0040F1EBF996841F4E0519960160732
:1017480042BF996841F4604199602349A0688B6859
:1017580023F0F00303438B60BBE762681E4B012A4A
:101768001CD11B6813F4003FA7D01B4EB36823F0AD
:1017780003031343B360FFF72DFC41F28838074693
:10178800B368626803F00C03B3EB820FA3D0FFF7D2
:1017980021FCC01B4045F3D903208FE7911E012986
:1017A8001B6802D813F0007FDEE713F0020FDBE7B7
:1017B800EAB21A701B6803F00703AB427FF47DAFEF
:1017C8008FE70549E0688B6823F4E05303438B6097
:1017D8008AE700BF003C024000380240501F000862
:1017E8000800002010000020044B054A9B68C3F342
:1017F8008223D35C034A1068D840704700380240FF
:10180800601F000808000020044B054A9B68C3F3CA
:101818004233D35C034A1068D8407047003802400E
:10182800601F000808000020026802F10C0353E85A
:10183800003F23F490730C3242E80031026800291B
:10184800F2D102F1140353E8003F23F0010302F13F
:10185800140C4CE800310029F3D1036B012B0BD198
:1018680002F10C0353E8003F23F0100302F10C0CC3
:101878004CE800310029F3D1202380F83E300023C2
:10188800036370470268C168136923F440530B432C
:1018980070B51361054683680069D16803436869B8
:1018A8000343E86921F4164121F00C0103430B437B
:1018B800D3605369A96923F440730B4353611F4BE9
:1018C8009A4203D003F580639A4223D1FFF79CFF25
:1018D800EB691921B3F5004FD5E90046A0FB0101DA
:1018E8001BD1B2194FF000035B41FEF771FC642174
:1018F800B0FBF1F501FB1503DB003233B3FBF1F369
:1019080003F007025B0002EB051203F4F8731344BB
:10191800A36070BDFFF768FFDAE7B200B30FFEF708
:1019280057FC6422B0FBF2F102FB11031B013233B6
:10193800B3FBF2F303EB0113EAE700BF0010014029
:10194800F8B504460E4617461D462268136836EA5F
:10195800030301D1002028E06B1CF7D025B1FFF765
:1019680039FBC01B8542F0D2226802F10C0353E810
:10197800003F23F4D0730C3242E80030216800287D
:10198800F2D101F1140353E8003F23F0010301F100
:10199800140040E80032002AF3D1202384F83D30B7
:1019A80084F83C2084F83E300320F8BD10B5044686
:1019B80040B390F83D3003F0FF021BB980F83C209B
:1019C800FFF73CFA2268242384F83D30D36823F4D7
:1019D8000053D3602046FFF755FF23681A6922F4A5
:1019E80090421A615A6922F02A025A61DA6842F46E
:1019F8000052DA6000202023206484F83D3084F807
:101A08003E3010BD0120FCE7F7B5174690F83D20A1
:101A18000093202A04460E4649D1002945D0002FBC
:101A280043D090F83C20012A41D0012280F83C2084
:101A380000252122056480F83D20FFF7CBFAA16834
:101A4800009BA784B1F5805F0246E78403D1216932
:101A580009B935460E46002184F83C10E18C89B25C
:101A680041B940212046FFF76BFF60B9202384F875
:101A78003D3009E080212046CDE90023FFF760FFD3
:101A8800DDE9002310B1032003B0F0BD20684EB992
:101A980035F8021BC1F308014160E18C013989B2B4
:101AA800E184DBE716F8011BF6E70120ECE70220EA
:101AB800EAE77047704708B5806B0023C385C38485
:101AC800FFF7F8FF08BD704707B58168836A0268A9
:101AD800B1F5805F3ED1016900293ED15268C2F359
:101AE800080223F8022B8362C38D013B9BB2C38596
:101AF800002B2CD10268D16821F02001D160D16877
:101B080021F48071D160516921F0010151612022D5
:101B180080F83E20026B012A026828D1036302F193
:101B28000C0353E8003F23F0100302F10C0C4CE8BF
:101B380000310029F3D11368DB0605D5019113683C
:101B4800019353680193019B818DFFF7BCFF03B09C
:101B58005DF804FB39B9016929B95268D2B21A7023
:101B6800836A0133BFE7526802F07F02F7E7FEF7A6
:101B7800CFFFECE7036837B51A68D9685D6912F0DA
:101B88000F0F04460CD1950670D58D066ED590F8CA
:101B98003E30222B64D103B0BDE83040FFF794BF3C
:101BA80005F0010001F4907505435FD0D50705D510
:101BB800CB0542BF236C43F001032364550704D5CA
:101BC80018B1236C43F002032364930704D518B1BA
:101BD800236C43F004032364150707D501F02003A1
:101BE80003431EBF236C43F008032364236C002BBC
:101BF80036D0900608D58A0606D594F83E30222BB2
:101C080002D12046FFF760FF23685B69256C03F06B
:101C1800400305F008051D43204623D0FFF704FEC6
:101C2800226853695B0618D502F1140353E8003F94
:101C380023F0400302F1140040E800310029F3D1F9
:101C4800A06B50B1724B0365FFF774FA40B1A06BFB
:101C5800036D03B0BDE8304018472046FFF72AFF60
:101C680003B030BDFFF726FF2564F9E7206B012894
:101C780040F09180D50640F18E80C80640F18B80F7
:101C8800002201921A6801925A680192019A5A69CF
:101C980055064CD5A16B0A68526892B2002ADFD06B
:101CA800A08D9042DCD9E285CA69B2F5807F36D032
:101CB80003F10C0252E8002F22F4807203F10C00A9
:101CC80040E800210029F3D103F1140252E8002F63
:101CD80022F0010203F1140040E800210029F3D1A9
:101CE80003F1140252E8002F22F0400203F114001D
:101CF80040E800210029F3D1202284F83E20216306
:101D080003F10C0252E8002F22F0100203F10C003C
:101D180040E800210029F3D1A06BFFF7C7F9E38D54
:101D2800A18DC91A89B22046FFF7CDFE98E7E18D4B
:101D38008AB2E18D89B2002992D0A18D891A89B21F
:101D480000298DD003F10C0252E8002F22F4907282
:101D580003F10C0545E800200028F3D103F1140233
:101D680052E8002F22F0010203F1140545E8002093
:101D78000028F3D1202284F83E20206303F10C02CE
:101D880052E8002F22F0100203F10C0545E800206C
:101D98000028F3D1C7E7100628D50D0626D594F8F4
:101DA8003D20212A7FF45CAFA168226AB1F5805FEB
:101DB80017D12169A9B932F8021BC1F3080159608A
:101DC8002262E28C013A92B2E284002A7FF448AFA0
:101DD800DA6822F08002DA60DA6842F04002DA60FB
:101DE8003EE7511C216212785A60EAE750067FF5F7
:101DF80037AF4A067FF534AFDA6822F04002DA607E
:101E0800202384F83D302046FFF753FE28E700BF23
:101E1800BF1A0008C285002382852222036480F845
:101E28003E20026980F83C30816203681AB1DA68A2
:101E380042F48072DA605A6942F001025A61DA6843
:101E480042F02002DA600020704770B490F83E60DB
:101E5800202E10D161B15AB190F83C40012C0AD023
:101E6800012480F83C400024046370BCFFF7D2BF13
:101E7800012070BC70470220FBE7000070B50D4DD3
:101E88000D4C641BA4100026A64209D10B4D0C4C26
:101E980000F020F8641BA4100026A64205D170BDEE
:101EA80055F8043B98470136EEE755F8043B984748
:101EB8000136F2E7701F0008701F0008701F000845
:101EC800741F000802440346934200D1704703F888
:101ED800011BF9E7F8B500BFF8BC08BC9E4670477F
:0C1EE800F8B500BFF8BC08BC9E4670476F
:101EF4000000FFFF4566656B617420310A0045668A
:101F0400656B617420320A004566656B6174203329
:101F14000A004566656B617420340A004566656B8A
:101F2400617420350A00496E746572727570740AA2
:101F340000426567696E0A00453031004530320061
:101F44004530330045303400453035000000000092
:101F54000000000001020304060708090000000055
:041F6400010203046F
:081F6800A0E2FF7F0100000070
:041F7000BD010008A7
:041F740099010008C7
:101F7800CD090008010000000024F4000100000061
:041F88001000000045
:0400000508000EF5EC
:00000001FF
